:08000000803102288731F52F41
:100B1200003085319C258531013085319C25853118
:100B2200080021009D149D18972D982D942D1B08C7
:100B32002000AE000800F20020001010720885317B
:100B4200EC258531200010151530F100C630890BD7
:100B5200A82DF10BA82D00322000101108007108F9
:100B62000F39F4007108F039F500200010147508EF
:100B7200F3000430F336890BBB2D73088531EC2565
:100B8200853120001015101174088531EC2585314E
:100B92002000101510110800F401F501701CD22D6F
:100BA200D32DD72D7208F4077308F53D0130F235C5
:100BB200F30D890BD82D0130F136F00C890BDD2DA8
:100BC20070087104031DE62DE72DCF2D7508F10085
:100BD2007408F0000800F000701CF02DF12DF42DC7
:100BE20020000C17F62D20000C13F01CF92DFA2D05
:100BF200FC2D0E14FD2D0E10701D002E012E032E45
:100C02008E14042E8E10F01D072E082E0A2E8E151D
:100C12000B2E8E11080068302100990024008C01EF
:100C2200013023008C00013021008C0003309D0034
:100C3200E0309E009F0124008E0123008E012100DE
:100C42008E0124008F0123008F0121008F012400D7
:100C5200900123009001210090010800F801F901A0
:100C6200462E2008780784002108793D8500000877
:100C7200F600F7017608F1007708F2008531B02519
:100C820086310130F8070030F93D2000200878074E
:100C920084002108793D85001200031D512E522E39
:100CA200322E0800700871040319582E592E802E16
:100CB2000130F400632E0130F035F10D890B5D2E09
:100CC2000130F407F11F662E672E5C2E7108730245
:100CD200031D6D2E70087202031C702E712E752E6C
:100CE2007008F2027108F33B0130F136F00C890B07
:100CF200762E0130F402031D7F2E802E672E73089C
:100D0200F1007208F0000800F5007503031D8A2E39
:100D12008B2EA22E73087F3EF8007808F400043070
:100D2200F436890B912E7408F60078080F39F70013
:100D3200760885319C258631770885319C25863158
:100D4200BE2E02307506031DA72EA82EBE2E7308D6
:100D5200BF3EF8007808F4000430F436890BAE2E5A
:100D62007408F60078080F39F700760885319C255B
:100D72008631770885319C2586310800F401F5011A
:100D8200700871040319C62EC72EF42E0130F60026
:100D9200D12E0130F035F10D890BCB2E0130F60743
:100DA200F11FD42ED52ECA2E0130F435F50D890B44
:100DB200D62E71087302031DE02E70087202031C06
:100DC200E32EE42EE92E7008F2027108F33B74144C
:100DD2000130F136F00C890BEA2E0130F602031DC8
:100DE200F32EF42ED52E7508F1007408F0000800D9
:100DF20000308531EC258631033085319C258631E2
:100E02001A30F300F830890B042FF30B042F003251
:100E1200033085319C2586313A30F3002330890B2B
:100E2200102FF30B102F0000033085319C258631E3
:100E3200023085319C258631023085319C258631F0
:100E4200083085319C258631003085319C258631DC
:100E52000C3085319C258631003085319C258631C8
:100E6200063085319C258631080086310C26873173
:100E72008631F9268731853189258731F301F30AD5
:100E8200023086318526873100302000A00088306C
:100E9200A10086312F2687318531922587312000A6
:100EA2002E088F002E08FB00FC017B08F0007C0856
:100EB200F1000530F2000030F3008531CD25873195
:100EC20071082000AD007008AC002D08A1002C08AC
:100ED200A00087317B2787310630FC001330FB00EE
:100EE200AE30890B722FFB0B722FFC0B722F4D2F22
:100EF200803102282000AA01AB01A801A901AC2F70
:100F02002808223E860087010A30F0000030F100F6
:100F12002108F3002008F200863153268731700839
:100F2200303E810001302000A8070030A93D013089
:100F3200AA070030AB3D0A30F0000030F100210872
:100F4200F3002008F2008631BF26873171082000A5
:100F5200A1007008A00020082104031DB12FB22FA8
:100F6200812FF301F30A0130863185268731DF2F85
:100F720020002A032B04031DBF2FC02FC72F2C30A4
:100F8200F1000030F2008531B0258731FF302000BA
:100F9200A807FF30A93D2808223E860087010108E4
:100FA200F900FA017908F1007A08F2008531B025DA
:100FB2008731FF302000AA07FF30AB3D20002B080D
:100FC200803AF90080307902031DE92F01302A02AC
:100FD2000318EC2FED2FB92FDF30F1000030F200B3
:100FE2008531B025873108002000AE01AF01B00184
:100FF200B101B201B301B40120008731362F4D3463
:10100200613474346834693461347334203465343F
:0C101200723420346734613479340034C7
:020000040001F9
:04000E00E419FF3EB4
:00000001FF
